:10064800436F756E74446F776E3A200020203A200D
:100658002000436F756E74446F776E2046696E692B
:040668007368210092
:08071D00C100043900000000D6
:10052900120365AF2C7E007C007D3C120176C0046D
:10053900A905AA06AB07AF2B7E007C0E7D10120120
:1005490076D000EF2BFBEE3AFAED39F9EC38F8E406
:10055900FCFDFEEB252DFFEE3AFEED39FDEC38FCF6
:01056900226F
:1006F500E4F52BF52CF52D1201A3E4F53CF53BF5BE
:040705003AF5392266
:10028D001207091207527BFF7A0679487D017F011B
:10029D0012066C7BFF7A0679547D017F0212066C83
:0302AD001206F541
:1002B0001205298F0B8E0A8D098C08C3E50B953C1E
:1002C000F50FE50A953BF50EE509953AF50DE508BC
:1002D0009539F50CC374B0950FF5137404950EF5AC
:1002E00012E4950DF511E4950CF510E47B3CFAF958
:1002F000F8AF13AE12AD11AC101200D38F14E47B23
:100300003CFAF9F8AF13AE12AD11AC101200D3AF36
:10031000038F15E4FFFEFDFCAB13AA12A911A81070
:10032000D3120165500BD200E4F513F512F511F567
:1003300010E514FB7A00751A027D017F021206ADEA
:10034000E515FB7A00751A027D047F021206AD20C6
:1003500000030202B07BFF7A06795A7D017F011209
:02036000066C29
:030362000202B0E4
:06072F00C2A68F90D2A7C4
:080735007F027EEFDEFEDFFC17
:01073D002299
:0A073E00C2A512072FC2A70207355B
:10068F00CFCDCFCECCCE1200427C007D0A120042DD
:04069F00ED2430FF17
:0A06A300D2A512072FC2A7020735E7
:1006CA00AE07BE0104ED148006BE0209ED243F44C4
:0606DA0080FF12073E2222
:100709007F3812073E7F0C12073E7F0612073E7F95
:040719000102073E94
:0A074800AC031206CAAF040206A3B8
:06066C008B168A178918A5
:100672001206CAE4FDAB16AA17A9188D827583006B
:0C068200120003FF60061206A30D80E9C1
:01068E002249
:0C0615007F0AEA24FFFDE434FFFC7E00B5
:080621008E1B8F1C8C1D8D1E29
:100629007F017E00E4FBEBC3951EE51D6480F87431
:0E0639008098500AAC1BAD1C1200300B80E8FC
:010647002290
:0406AD008A188B1903
:1006B1001206CAAA1AEAD39400400D120615AC1804
:0806C100AD1912068F1A80ED3D
:0106C900220E
:10056A001206CAC3EA64809480400B7F2B1206A34A
:10057A008A268B27800E7F2D1206A3C3E49BF527BC
:10058A00E49AF526AA25EAD39400400D120615AC82
:09059A0026AD2712068F1A80ED30
:0105A3002235
:0405A4008A318B32DB
:1005A8001206CAAA33EAD3940040297F101206170C
:1005B800AC31AD32CFCDCFCECCCE120042EF540FFE
:1005C800FEC3940AEE5004243080022437FF12063A
:0405D800A31A80D111
:0105DC0022FC
:0405DD008A368B3798
:1005E1001206CAAA38EAD394004028EA24FFFDE49F
:1005F10034FFFC7F027E00120621AC36AD37CFCD31
:10060100CFCECCCE120042EF54012430FF1206A30C
:030611001A80D27A
:0106140022C3
:090725000728130B100C3B3706EA
:05075200C280C28222FA
:06047E0025F0FDEC3EFC40
:060484008C168D17AB077A
:10048A00D280E4FD74017E00A805088005C333CE3E
:10049A0033CED8F9FFEBF582EF558224FF9281D251
:1004AA0082C2820DBD08DDE4FD74017E00A8050844
:1004BA008005C333CE33CED8F9FFE5165EFEE517C5
:1004CA005F4E24FF9281D282C2820DBD08DBC280B8
:0104DA0022FF
:0204DB00AD076B
:1004DD00E4F9430501D280FB74017E00A803088076
:1004ED0005C333CE33CED8F9FFEDF582EF55822417
:1004FD00FF9281C282D2820BBB08DDE4FBD282C2A5
:10050D008230810D7401A803088002C333D8FC42E8
:0B051D00010BBB08E8C280C281AF01E7
:0105280022B0
:1001A300E4FDFC7F8E120484E52875F00A8475F063
:1001B30010A4FFAEF0E52875F00A84EF7F8C1204DB
:1001C3007EE52975F00A8475F010A4FFAEF0E529E9
:1001D30075F00A847C00EF7F8812047EE52A75F0AF
:1001E3000A8475F010A4FFAEF0E52A75F00A847C4A
:1001F30000EF25F0FDEC3EFC7F86120484E52B75B1
:10020300F00A8475F010A4FFAEF0E52B75F00A84B4
:100213007C00EF25F0FDEC3EFC7F84120484E52C8A
:1002230075F00A8475F010A4FFAEF0E52C75F00AA2
:10023300847C00EF25F0FDEC3EFC7F82120484E514
:100243002D75F00A8475F010A4FFAEF0E52D75F05E
:100253000A847C00EF25F0FDEC3EFC7F80120484D1
:10026300E52E75F00A8475F010A4FFAEF0E52E7547
:10027300F00A847C00EF25F0FDEC3EFC7F8A12043B
:0A028300847D807C007F8E020484DD
:100365007F8C1204DBEFC4540F75F00AA4FEEF5422
:100375000F2EF5287F881204DBEFC4540F75F00AA1
:10038500A4FEEF540F2EF5297F861204DBEFC4542B
:100395000F75F00AA4FEEF540F2EF52A7F84120480
:1003A500DBEFC4540F75F00AA4FEEF540F2EF52BA6
:1003B5007F821204DBEFC4540F75F00AA4FEEF54DC
:1003C5000F2EF52C7F801204DBEFC4540F75F00A55
:1003D500A4FEEF540F2EF52D7F8A1204DBEFC454D3
:0C03E5000F75F00AA4FEEF540F2EF52E49
:0103F10022E9
:1006E000EF1FAC0670011E4C600A7D027CEFDCFE41
:0406F000DDFC80ECC1
:0106F40022E3
:030000000203F206
:0C03F200787FE4F6D8FD75813C020439E8
:10000300BB010CE58229F582E5833AF583E02250B2
:1000130006E92582F8E622BBFE06E92582F8E222FC
:0D002300E58229F582E5833AF583E4932216
:10003000EF8DF0A4A8F0CF8CF0A428CE8DF0A42EE4
:02004000FE229E
:10004200BC000BBE0029EF8DF084FFADF022E4CCA2
:10005200F875F008EF2FFFEE33FEEC33FCEE9DEC6B
:10006200984005FCEE9DFE0FD5F0E9E4CEFD22EDB1
:10007200F8F5F0EE8420D21CFEADF075F008EF2FFB
:10008200FFED33FD4007985006D5F0F222C398FDEC
:050092000FD5F0EA2289
:1000970075F008758200EF2FFFEE33FECD33CDCC20
:1000A70033CCC58233C5829BED9AEC99E5829840A3
:1000B7000CF582EE9BFEED9AFDEC99FC0FD5F0D680
:1000C700E4CEFBE4CDFAE4CCF9A88222B800C1B9AA
:1000D7000059BA002DEC8BF084CFCECDFCE5F0CBE8
:1000E700F97818EF2FFFEE33FEED33FDEC33FCEB21
:1000F70033FB10D703994004EB99FB0FD8E5E4F9DC
:10010700FA227818EF2FFFEE33FEED33FDEC33FCC8
:10011700C933C910D7059BE99A4007EC9BFCE99ABC
:10012700F90FD8E0E4C9FAE4CCFB2275F010EF2F01
:10013700FFEE33FEED33FDCC33CCC833C810D70701
:100147009BEC9AE899400AED9BFDEC9AFCE899F83C
:0E0157000FD5F0DAE4CDFBE4CCFAE4C8F922CF
:10016500EB9FF5F0EA9E42F0E99D42F0E89C45F0F0
:010175002267
:10017600EC8EF0A4CCC5F0CCCDF8EFA4CEC5F02D16
:10018600FDE43CFCE8A42EC8C5F03DFDE43CFCEFD4
:0D019600A4FFE5F028FEE43DFDE43CFC2262
:1003FE0002028DE493A3F8E493A34003F68001F286
:10040E0008DFF48029E493A3F85407240CC8C333FF
:10041E00C4540F4420C8834004F456800146F6DFCE
:10042E00E4800B010204081020408090071DE47E3A
:10043E00019360BCA3FF543F30E509541FFEE493C3
:10044E00A360010ECF54C025E060A840B8E493A38A
:10045E00FAE493A3F8E493A3C8C582C8CAC583CAB5
:10046E00F0A3C8C582C8CAC583CADFE9DEE780BE6D
:01072E0000CA
:00000001FF
