:03000000021147A3
:0C114700787FE4F6D8FD75812002118E3F
:10000300526573756C742073656E7420746F20620F
:1000130061636B656E643A200044657669636520AD
:10002300726573657420636F6D706C657465640DC0
:100033000A00436F6E74726F6C20312065786563BC
:10004300757465640D0A00436F6E74726F6C2032B1
:100053002065786563757465640D0A00436F6E747B
:10006300726F6C2033206578656375746564202D29
:10007300205374617475733A203078000D0A00546C
:100083006869732069732064706A207265636569A7
:1000930076656420303030303030303030303030BE
:1000A30030303030300D0A00546869732069732092
:1000B30064706A20726563656976656420313131E5
:1000C300313131310D0A005468697320697320643A
:1000D300706A2072656365697665642032323232F4
:1000E300320D0A00546869732069732064706A20B2
:1000F3007265636569766564203333333333330D57
:100103000A00546869732069732064706A207265F9
:10011300636569766564204552524F52A3A10D0A67
:1001230000526563656976656420636F6D6D616E0A
:10013300642066726F6D206261636B656E643A2042
:1001430000496E76616C696420636F6D6D616E64E6
:100153002072656365697665642066726F6D2062DF
:1001630061636B656E640D0A00417474656D707430
:10017300696E6720746F206F70656E20736F636B99
:1001830065742E2E2E0D0A00536F636B6574206FFA
:1001930070656E20636F6D6D616E642073656E7440
:1001A3002C2077616974696E6720666F72204352F1
:1001B30020746F20636C6561722E2E2E0D0A00531E
:1001C3006F636B6574206F70656E2074696D656F06
:1001D3007574210D0A00536F636B6574206F70652E
:1001E3006E6564207375636365737366756C6C7990
:1001F300210D0A00536F636B6574206F70656E2069
:100203006661696C65642C207374617475733A203C
:10021300307800536F636B6574206E6F7420696E62
:1002230020494E49542073746174652C2063616EB8
:100233006E6F74206C697374656E0D0A004C69737C
:1002430074656E20636F6D6D616E642074696D6596
:100253006F7574210D0A00536F636B6574206C69AD
:100263007374656E696E6720737563636573736614
:10027300756C6C79210D0A004C697374656E206688
:1002830061696C65642C207374617475733A2030F2
:100293007800436172642064657465637465642CDB
:1002A300205549442073656E743A2000416C6C20DC
:1002B300696E6974206973206F6B2E2E2E0D0A00F0
:1002C300536572766572206C697374656E696E67C7
:1002D300206F6E20706F727420353030302E2E2ECA
:1002E3000D0A00436C69656E7420646973636F6EF5
:1002F3006E65637465640D0A00536F636B657420E8
:10030300636C6F7365642C207265737461727469B6
:100313006E672E2E2E0D0A0053657276657220725B
:100323006573746172746564207375636365737355
:1003330066756C6C790D0A004661696C656420749E
:100343006F2072657374617274206C697374656E67
:10035300696E670D0A004661696C656420746F20DD
:100363007265737461727420736F636B65740D0AC5
:010373000089
:101581004400BDC0A81F384400CBFFFFFF0044004A
:10159100C7C0A81F014600CF0008DC111111460089
:0915A100C1000000000000C100BF
:100BAC00E490006DF0ED6026E0FE04F0745D2EF52F
:100BBC0082E43400F583744FF090006DE0FE04F095
:100BCC00745D2EF582E43400F583744B803B900009
:100BDC006DE0FE04F0745D2EF582E43400F5837450
:100BEC0045F090006DE0FE04F0745D2EF582E43467
:100BFC0000F5837452F090006DE0FE04F0745D2EED
:100C0C00F582E43400F5837452F090006DE0FE043C
:100C1C00F0745D2EF582E43400F583743AF09000A4
:100C2C006DE0FE04F0745D2EF582E43400F583EF84
:100C3C00F090006DE0FF04F0745D2FF582E4340059
:100C4C00F583740DF090006DE0FF04F0745D2FF5EA
:100C5C0082E43400F583740AF0E4FF12169FEF640B
:100C6C001770397B017A00795D90006DE0FF900080
:100C7C009FE4F0A3EFF0E4FF120CA97BFF7A00795C
:100C8C00031214F390006DE0245DF582E43400F55A
:0C0C9C0083E4F07B017A00795D1214F310
:010CA8002229
:0F16EA00E4F5B07BFF7A00791C1214F37F012224
:0C16F9007BFF7A0079351214F37F012288
:0C1705007BFF7A00794A1214F37F012266
:1013FB009000D5E590F07BFF7A00795F1214F390A3
:10140B0000D5E0C4540FFFC3940A5006EF2430FFFD
:10141B00800A9000D5E0C4540F2437FF12171190A7
:10142B0000D5E0540FFFC3940A5006EF2430FF8021
:10143B00099000D5E0540F2437FF1217117BFF7A68
:08144B0000797F1214F37F0108
:011453002276
:0510100090005BEFF011
:10101500E4A3F0EF24CF602414603B146052240352
:1010250070717BFF7A0079821214F37BFF7A007965
:10103500821214F37BFF7A007982804C7BFF7A0061
:1010450079AB1214F37BFF7A0079AB1214F37BFFB3
:101055007A0079AB80327BFF7A0079CA1214F37B70
:10106500FF7A0079CA1214F37BFF7A0079CA8018D7
:101075007BFF7A0079E71214F37BFF7A0079E71298
:1010850014F37BFF7A0079E71214F390005C740186
:10109500F0800E1214ED1214ED1214EDE490005CC4
:1010A500F090005BE0FFA3E0FD120BAC90005CE06C
:0110B500FF3B
:0110B6002217
:100E8600E4900057F0A3F0FF12169FEF641760037B
:100E9600020F567B017A00794390005FF0A3741429
:100EA600F0E4FF12085A900057EEF0A3EFF0D39447
:100EB60000EE94005003020F56900057E0FEA3E0A8
:100EC600FF9414EE9400500E74432FF58274003E86
:100ED600F583E4F08005E4900056F0E490005AF0C3
:100EE60090005AE0FFFDD3900058E09D900057E037
:100EF6009400405374432FF582E43400F583E09068
:100F06000059F064306010E0FF6431600AEF64322B
:100F16006005EF643370287BFF7A0179241214F39D
:100F2600900059E0FF1217117BFF7A00797F1214A7
:100F3600F3900059E0FF121010EF60037F0122903A
:100F4600005AE004F080997BFF7A0179441214F389
:020F56007F001A
:010F58002276
:1015F600E4FDFCC3ED9FEC9E5015E4FBFA0BBB002B
:0F160600010ABA03F8BBE8F50DBD00010C80E442
:0116150022B2
:0D15AB00E0FF1215B8A3E0FF1215B8AF0560
:1015B800E4FEEF30E703D38001C392A2EF25E0FFFA
:0915C800D2A0C2A00EEEB408E9A5
:0115D10022F7
:10167300E4FFFEEF25E0FFD2A030A3034401FFC245
:06168300A00EEEB408ED1C
:01168900223E
:061248003400FEA3E0FDEE
:10124E009000A5EEF0A3EFF0C39408EE94005004C6
:10125E007C048041C3EF9408EE94004013EF940891
:10126E00EE9401500B7C0CEF24F8FFEE34FF801A45
:10127E00C3EF9408EE9401401AEF9408EE940250D6
:10128E00127C2CEF24F8FFEE34FE9000A5F0A3EFB5
:10129E00F080027C04C2A19000A5E0FF1215B8A355
:0C12AE00E0FF1215B8AF041215B3D2A176
:0112BA002211
:08132900900061FFE03400FEBA
:101331009000A5EEF0A3EFF0C39408EE94005004E2
:10134100E4FD8041C3EF9408EE94004013EF94084C
:10135100EE9401500B7D08EF24F8FFEE34FF801A64
:10136100C3EF9408EE9401401AEF9408EE940250F2
:10137100127D28EF24F8FFEE34FE9000A5F0A3EFD4
:10138100F08002E4FDC2A19000A51215AB12167304
:02139100D2A1E7
:011393002237
:03145400FD7E001A
:101457009000A5EEF0A3EFF09000A8EBF0A3EAF060
:03146700A3E9F006
:10146A00C2A19000A51215ABE4FDFCD39000ACE03C
:10147A009D9000ABE09C401D9000A8E0FBA3E0FA21
:10148A00A3E0F98D828C83120AC1FF1215B80DBD33
:07149A0000010C80D6D2A175
:0114A1002228
:1014A200900067EEF0A3EFF090006AEBF0A3EAF091
:0314B200A3E9F0BB
:1014B500C2A19000671215ABE4FDFCD390006EE06D
:1014C5009D90006DE09C401D12167390006AE0FB34
:1014D500A3E0FAA3E0F98D828C83EF120B000DBD1A
:0714E50000010C80D6D2A12A
:0114EC0022DD
:1016DA00C2A57F327E001215F6D2A57FC80215F682
:1011D3001216DA7B017A0079C79000ABE4F0A374AE
:1011E30004F07F011214547B017A0079CB9000AB99
:1011F300E4F0A37404F07F051214547B017A0079A0
:10120300CF9000ABE4F0A37406F07D047F097E0069
:101213001214577B017A0079BD9000ABE4F0A374FC
:1012230004F0FD7F0F7E001214577D077F197E00A7
:1012330012124E7DD07F1A7E0012124E7D087F1B44
:051243007E0002124EC6
:080704007B887A137D01E4FFFC
:0A070C00900043EAF0A3EBF0A9050A
:10071600EFFEE42408FFE43EFEA3F0A3EFF0E4A31B
:10072600F0A3F0EF2401FFE43EFE7D1012124E7F8F
:100736000A7E001215F6900045E0FEA3E0FFAD012B
:1007460012124E900046E02404FF900045E034006B
:10075600FE900043E0FD12124E900046E02405FF95
:10076600900045E09000431212487BFF7A01796CB5
:100776001214F3900046E02401FF900045E0340097
:10078600FE7D0112124E7BFF7A01798B1214F3E47F
:10079600900047F0A3F0900046E024019000451237
:1007A600132CEF6024C3900048E094E8900047E0E3
:1007B600940350157F017E001215F6A3E004F07035
:1007C600D5900047E004F080CDC3900048E094E85F
:1007D600900047E0940340087BFF7A0179C2806E5F
:1007E600900046E02403FF90004512132D90004927
:1007F600EFF0BF130C7BFF7A0179D91214F37F0156
:10080600227BFF7A0179F71214F3900049E0C45471
:100816000FFFC3940A5006EF2430FF800A90004968
:10082600E0C4540F2437FF121711900049E0540F0B
:10083600FFC3940A5006EF2430FF8009900049E078
:10084600540F2437FF1217117BFF7A00797F121499
:03085600F37F002D
:01085900227C
:10099E00EFFEE42408FFE43EFE900043F0A3EFF0E8
:1009AE00E4A3F0A3F0EF2403FFE43EFE1213319014
:1009BE000047EFF0641360097BFF7A027916020A92
:1009CE00A2900044E02401FF900043E03400FE7D3D
:1009DE000212124EE4900045F0A3F0900044E02481
:1009EE0001FF90004312132DEF6024C3900046E0E8
:1009FE0094E8900045E0940350157F017E00121597
:100A0E00F6A3E004F070D4900045E004F080CCC36F
:100A1E00900046E094E8900045E0940340087BFF88
:100A2E007A027940806E900044E02403FF900043E8
:100A3E0012132D900047EFF0BF140C7BFF7A027952
:100A4E005A1214F37F01227BFF7A02797B1214F380
:100A5E00900047E0C4540FFFC3940A5006EF2430B1
:100A6E00FF800A900047E0C4540F2437FF1217117D
:100A7E00900047E0540FFFC3940A5006EF2430FF56
:100A8E008009900047E0540F2437FF1217117BFFA7
:090A9E007A00797F1214F37F0045
:010AA700222C
:10169F00EFFEE42408FFE43EFEEF2403FFE43EFEEA
:0316AF00121331E2
:0116B2002215
:100CA90090009CEBF0A3EAF0A3E9F090009BEFF031
:100CB900FEE42408FFE43EFE9000A1F0A3EFF02437
:100CC90024FFE43EFE121331EF9000A3F0A3E4F0F9
:100CD9009000A2E02425FF9000A112132D9000A3FB
:100CE900E0FEA3E04FFF9000A3EEF0A3EFF0FDAC10
:100CF9000690009BE0FBC454F0FEE42400FFEE34B0
:100D090080FEEC540FFCEF2DFFEE3CFEC007EBC458
:100D19003354E04414FDA3E0FBA3E0FAA3E0F9A3F4
:100D2900E0FFA3E09000ABCFF0A3EFF0D0071214DF
:100D39005790009FE0FEA3E0FF9000A4E02FF09001
:100D490000A3E03EF09000A2E02424FF9000A1E07F
:100D59003400FE9000A3E0FD12124E9000A2E024A0
:100D690025FF9000A1E09000A31212489000A2E094
:100D79002401FF9000A1E03400FE7D2012124E9064
:0F0D890000A2E02401FF9000A112132DEF70F0E3
:010D98002238
:10085A0090005CEBF0A3EAF0A3E9F090005BEFF004
:10086A00FEE42408FFE43EFE900061F0A3EFF024CA
:10087A0026FFE43EFE121331EF900063F0A3E4F08A
:10088A00900062E02427121329900063E0FEA3E09F
:10089A004FFF900063EEF0FEA3EFF04E7003FEFFF1
:1008AA002290005FE0FEA3E0FFD3900064E09F90F7
:1008BA000063E09E4005EEF0A3EFF0900062E024B2
:1008CA0028121329EF900065F0A3E4F0900062E08B
:1008DA002429121329900065E0FEA3E04FFF90003F
:1008EA0065EEF0A3EFF0FDAC0690005BE0FBC454AC
:1008FA00F0FEE42400FFEE34C0FEEC540FFCEF2DB2
:10090A00FFEE3CFEC007EBC43354E04418FDA3E0FD
:10091A00FBA3E0FAA3E0F9900063E0FFA3E09000F4
:10092A006DCFF0A3EFF0D0071214A2900063E0FE9F
:10093A00A3E0FF900066E02FF0900065E03EF090A3
:10094A000062E02428FF900061E03400FE90006518
:10095A00E0FD12124E900062E02429FF900061E04F
:10096A003400FE900065A3E0FD12124E900062E092
:10097A002401FF900061E03400FE7D4012124E9087
:10098A000062E02401121329EF70F4900063E0FE84
:03099A00A3E0FFD8
:01099D002237
:081711008F993099FDC2992265
:0614ED007BFF7A01790586
:1014F30090009BEBF0A3EAF0A3E9F090009BE0FBE4
:10150300A3E0FAA3E0F9120AA8601790009BA3E4F2
:1015130075F001120B77A9F0FA120AA8FF1217113E
:0315230080D9224A
:10161600E4FDFCC3ED9FEC9E5015E4FBFA0BBB000A
:0F162600010AEB646F4A70F50DBD00010C80E402
:011635002292
:0815D200AB07C2907F0A7E0006
:1015DA00E4FDFCC3ED9FEC9E5011000000000000EA
:0B15EA00000000000DBD00010C80E8B7
:0115F50022D3
:02152600AB0711
:10152800C2911215D6E4FAEB30E703D38001C392D7
:10153800921215D6D2917F141215DAEB25E0FBC270
:0B154800917F0A1215DA0AEAB408DCF1
:011553002275
:10155400E4FBC2917F0AFE1215DAE4FAEB25E0FB04
:10156400D2917F147E001215DA309304EB4401FB10
:0C157400C2911215D60AEAB408E2AF03D7
:011580002248
:10165600A9051215D2AF03EF25E0547EFF12152619
:0D166600AF011215261215D6D2900215DA2A
:101636001215D2AF03EF25E0547E4480FF12152623
:0F164600121554AB071215D6D2901215DAAF0356
:011655002272
:0716B3009000BCEDF0A90757
:0D16BA00121636AE07AF01E04EFD021656C7
:07168A009000BCEDF0A90780
:0E169100121636AE07AF01E0F45EFD021656EB
:10139400C2947F647E00121616D2947FF40E121645
:1013A400167D0F7F011216567F647E001216167F7B
:1013B40001121636EF20E4F77D837F141216567D52
:1013C4007F7F261216567D267F241216567D407F77
:1013D400151216567D3D7F111216567D807F2A12F6
:1013E40016567DA97F2B1216567D037F2C12165696
:0713F4007DFF7F2D0216565C
:100374009000ABEBF0A3EAF0A3E9F09000AAEFF051
:10038400E49000B5F0A3F0A3F09000BAF0A3F0EF6E
:1003940024F4700A9000B67477F0A37430F09000DF
:1003A400B6E04480FD7F021216567D807F0412164B
:1003B4008A7D807F0A1216B3E4FD7F01121656E48B
:1003C4009000B9F09000AEE0FF9000B9E0FEC39F4A
:1003D40050219000ABE0FBA3E0FAA3E0F98E827514
:1003E4008300120AC1FD7F091216569000B9E00479
:1003F400F080D19000AAE0FD7F01121656E0B40C03
:10040400077D807F0D1216B37F041216369000B854
:10041400EFF09000BBE004F070069000BAE004F046
:10042400D39000BBE094889000BAE0941340089005
:1004340000B57402F080187F327E001215DA900045
:10044400B8E0FF20E0099000B7E0FEEF5E60B97D00
:10045400807F0D12168AC39000BBE094D09000BA3E
:10046400E09407400302053E7F06121636EF541B44
:1004740060030205389000B5F0A3E0FF9000B8E0F7
:100484005F30E0069000B57401F09000AAE0640CBF
:10049400600302053E7F0A1216369000B8EFF07F23
:1004A4000C121636EF5407FD6026E024FFFFE434F7
:1004B400FFFEEF7803C333CE33CED8F97C002DFF93
:1004C400EC3EF99000B2E0FBA3E0FAA3E0C9801689
:1004D4009000B8E075F008A4FF9000B2E0FBA3E040
:1004E400FAA3E0F9E5F08FF0120B8D9000B8E070FC
:1004F4000204F09000B8E0D3941040037410F0E4C8
:100504009000B9F09000B8E0FFA3E0C39F502B7FA8
:10051400091216369000AFE0FBA3E0FAA3E0F990CD
:1005240000B9E0F582758300EF120B009000B9E08A
:0F05340004F080D09000B57403F09000B5E0FFA4
:010543002295
:0E12BB0090009BEFF0A3EBF0A3EAF0A3E9F0A4
:1012C9007D077F0D12165690009BE0FFA3E0FBA35C
:1012D900E0FAA3E0F9EF120AEE9000AE7401F09083
:1012E900009CE0F9A3E0FAA3E09000AFC9F0A3EAFB
:1012F900F0A3E9F0A37401F0A37400F0A3749FF0C4
:1013090090009CE0FBA3A3E0F97F0C120374EF703B
:0F1319000C90009FE07004A3E0641060027F015D
:0113280022A2
:0B0F590090009BEBF0A3EAF0A3E9F08E
:100F6400E4A3F0FD7F0D12165690009BE0FBA3E076
:100F7400FAA3E0F97493120AEE90009BE0FBA3E05D
:100F8400FAA3E0F99000017420120B00C002C00122
:100F94009000AE7402F090009BE0F9A3E0FAA3E0A5
:100FA4009000AFC9F0A3EAF0A3E9F0A37401F0A3A1
:100FB4007400F0A3749FF0D001D0027F0C1203746C
:100FC400AC07EC7044FD90009EE0FF90009BE0FBBA
:100FD400A3E0FAA3E0F98D82758300120AC1FEEF43
:100FE4006E90009EF00DEDB404DC90009BE0FBA33A
:100FF400E0FAA3E0F9AF058F82758300120AC1FFFE
:0B10040090009EE06F60027C01AF04D2
:01100F0022BE
:0B10B70090009BEBF0A3EAF0A3E9F02F
:1010C2009000A17493F0A37470F0E490009EF090ED
:1010D200009BE0FBA3E0FAA3E0F9A3E0FFF5827531
:1010E2008300120AC1FE74A32FF582E43400F58353
:1010F200EEF090009EE004F0E0B405D39000AE74F0
:1011020007F0A37401F0A37400F0A374A1F0A37418
:1011120001F0A37400F0A3749FF07B017A0079A11F
:101122007F0C120374EF701290009FE07004A3E032
:10113200641870069000A1E08001E490009EF09097
:04114200009EE0FF2C
:011146002286
:1016C7007F06121636EF541B60061213947F002212
:0216D7007F0191
:0116D90022EE
:10054400E4900099F01216C7EF70097F64FE12164A
:10055400167F0022E4900058F07B017A0079437FF3
:10056400521212BBA907E9600280217B017A00794B
:1005740053120F59A907E9600280117B017A0079AF
:10058400531210B7A907EFD3940040137F0A7E00DB
:10059400121616900058E004F0E0C3940340BA9099
:1005A4000058E0C3940340037F0022900099E0FFC9
:1005B40004F074592FF582E43400F5837455F090F7
:1005C4000099E0FF04F074592FF582E43400F583B8
:1005D4007449F0900099E0FF04F074592FF582E417
:1005E4003400F5837444F0900099E0FF04F07459EA
:1005F4002FF582E43400F583743AF0900099E0FF1B
:1006040004F074592FF582E43400F5837420F0E487
:01061400FFE6
:1006150074532FF582E43400F583E0C4540F900041
:100625009AF0C3940A5006E02430FE800790009AA1
:10063500E02437FE900099E0FD04F074592DF58211
:10064500E43400F583EEF074532FF582E43400F5BD
:1006550083E0540F90009AF0C3940A5006E02430CA
:10066500FE800790009AE02437FE900099E0FD0493
:10067500F074592DF582E43400F583EEF0EFC39460
:10068500035014900099E0FE04F074592EF582E4AD
:070695003400F5837420F02E
:10069C000FEF64046003020615900099E0FF04F06C
:1006AC0074592FF582E43400F583740DF0900099A1
:1006BC00E0FF04F074592FF582E43400F583740ADA
:1006CC00F0900099E0FE2459F582E43400F583E4BF
:1006DC00F07B017A00795990009FF0A3CEF0E4FFF3
:1006EC00120CA97BFF7A0279951214F37B017A0024
:0706FC0079591214F37F018C
:0107030022D3
:100D9900E4900040F0A3F075985053890F438920DF
:100DA900758DFD758BFD53877FD28ED299C298D2EE
:100DB9009C1211D37FE87E031215F61213947FF467
:100DC9007E011215F6120704E4FF12099E7BFF7AD1
:0F0DD9000279AF1214F37BFF7A0279C31214F37D
:100DE800E4FF12169F900042EFF06417703A120E5B
:100DF80086900041E004F07006900040E004F09016
:100E08000040E0FEA3E0FF7C007D05120B22ED4CC4
:100E18007062120544EF605CE4900040F0A3F07F3C
:100E2800DC7E051215F6804C900042E0B41C117D62
:100E3800087F097E0012124E7BFF7A0279E6803124
:100E4800900042E0702E7BFF7A0279FC1214F312B4
:100E58000704EF6016E4FF12099EEF7BFF60067A35
:100E680003791B800C7A03793B80067BFF7A037930
:0B0E7800591214F37F327E001215F6B1
:030E8300020DE875
:03171900020D9925
:10115300021719E493A3F8E493A34003F68001F282
:1011630008DFF48029E493A3F85407240CC8C3339D
:10117300C4540F4420C8834004F456800146F6DF6C
:10118300E4800B0102040810204080901581E47E66
:10119300019360BCA3FF543F30E509541FFEE49361
:1011A300A360010ECF54C025E060A840B8E493A328
:1011B300FAE493A3F8E493A3C8C582C8CAC583CA53
:1011C300F0A3C8C582C8CAC583CADFE9DEE780BE0B
:0115AA000040
:100AA800BB010689828A83E0225002E722BBFE024C
:090AB800E32289828A83E493227F
:100AC100BB010CE58229F582E5833AF583E02250EA
:100AD10006E92582F8E622BBFE06E92582F8E22234
:0D0AE100E58229F582E5833AF583E493224E
:100AEE00BB010689828A83F0225002F722BBFE01E7
:020AFE00F322E1
:100B0000F8BB010DE58229F582E5833AF583E8F02B
:100B1000225006E92582C8F622BBFE05E92582C8D7
:020B2000F222BF
:100B2200BC000BBE0029EF8DF084FFADF022E4CCB7
:100B3200F875F008EF2FFFEE33FEEC33FCEE9DEC80
:100B4200984005FCEE9DFE0FD5F0E9E4CEFD22EDC6
:100B5200F8F5F0EE8420D21CFEADF075F008EF2F10
:100B6200FFED33FD4007985006D5F0F222C398FD01
:050B72000FD5F0EA229E
:100B7700A3F8E0C5F025F0F0E58215827002158331
:060B8700E0C838F0E8228E
:100B8D00BB010A89828A83F0E5F0A3F0225006F7B3
:0F0B9D0009A7F01922BBFE06F3E5F009F31922B0
:00000001FF
