:0300000002159B4B
:0C159B00787FE4F6D8FD7581200215E28F
:10000300436F756E74446F776E3A200020203A2058
:100013002000436F756E74446F776E2046696E6976
:1000230073682100526573756C742073656E742058
:10003300746F206261636B656E643A200044657679
:1000430069636520726573657420636F6D706C6599
:100053007465640D0A00436F6E74726F6C203120F7
:1000630065786563757465640D0A00436F6E747219
:100073006F6C20322065786563757465640D0A00C2
:10008300436F6E74726F6C2033206578656375748B
:100093006564202D205374617475733A20307800A1
:1000A3000D0A00546869732069732064706A2072B2
:1000B30065636569766564203030303030303030C8
:1000C3003030303030303030300D0A0054686973CE
:1000D3002069732064706A2072656365697665645C
:1000E30020313131313131310D0A005468697320C7
:1000F30069732064706A207265636569766564203C
:1001030032323232320D0A00546869732069732027
:1001130064706A207265636569766564203333337E
:100123003333330D0A005468697320697320647094
:100133006A207265636569766564204552524F5241
:10014300A3A10D0A00526563656976656420636F38
:100153006D6D616E642066726F6D206261636B65A5
:100163006E643A2000496E76616C696420636F6D3A
:100173006D616E642072656365697665642066727D
:100183006F6D206261636B656E640D0A0041747468
:10019300656D7074696E6720746F206F70656E2073
:1001A300736F636B65742E2E2E0D0A00536F636B92
:1001B3006574206F70656E20636F6D6D616E642072
:1001C30073656E742C2077616974696E6720666F3E
:1001D3007220435220746F20636C6561722E2E2E41
:1001E3000D0A00536F636B6574206F70656E207426
:1001F300696D656F7574210D0A00536F636B6574C8
:10020300206F70656E6564207375636365737366D1
:10021300756C6C79210D0A00536F636B6574206FE5
:1002230070656E206661696C65642C2073746174FB
:1002330075733A20307800536F636B6574206E6F6B
:100243007420696E20494E49542073746174652C7F
:100253002063616E6E6F74206C697374656E0D0A32
:10026300004C697374656E20636F6D6D616E6420FD
:1002730074696D656F7574210D0A00536F636B6547
:1002830074206C697374656E696E6720737563633C
:1002930065737366756C6C79210D0A004C69737410
:1002A300656E206661696C65642C20737461747576
:1002B300733A203078004361726420646574656327
:1002C3007465642C205549442073656E743A20008C
:1002D300416C6C20696E6974206973206F6B2E2EDC
:1002E3002E0D0A00536572766572206C697374650E
:1002F3006E696E67206F6E20706F727420353030B8
:10030300302E2E2E0D0A00436C69656E74206469CD
:1003130073636F6E6E65637465640D0A00536F6378
:100323006B657420636C6F7365642C2072657374E2
:10033300617274696E672E2E2E0D0A0053657276F4
:10034300657220726573746172746564207375637A
:100353006365737366756C6C790D0A004661696C2D
:10036300656420746F2072657374617274206C69A4
:100373007374656E696E670D0A004661696C656426
:1003830020746F207265737461727420736F636B72
:0503930065740D0A0075
:101B2100C1004400CB000000004400BDC0A81F3824
:101B31004400D6FFFFFF004400C7C0A81F014600B4
:101B4100DA0008DC1111114600C10000000000009C
:0C1B5100C1014700CF130B100C3B3706FE
:071D9200121E8C7F027E008F
:101D9900EF1FAC0670011E4C600A7D027CEFDCFE71
:041DA900DDFC80ECF1
:011DAD002213
:051EA600C2B5C2B72225
:06184F0025F0FDEC3EFC5B
:0A185500900051ECF0A3EDF0AB079A
:10185F00D2B5E4FD74017E00A805088005C333CE20
:10186F0033CED8F9FFEBF582EF558224FF92B6D233
:10187F00B7C2B70DEDB408DCE4FD74017E00A80516
:10188F00088005C333CE33CED8F9FF900051E05E08
:10189F00FEA3E05F4E24FF92B6D2B7C2B70DEDB4F0
:0418AF0008D8C2B5DE
:0118B3002212
:02196A00AD07C7
:10196C00E4F9ED4401FDD2B5E4FB74017E00A8035B
:10197C00088005C333CE33CED8F9FFEDF582EF5591
:10198C008224FF92B6C2B7D2B70BEBB408DCE4FBEF
:10199C00D2B7C2B730B60D7401A803088002C333A6
:0F19AC00D8FC49F90BEBB408E7C2B5C2B6AF01DE
:0119BB002209
:100F6700E4FDFC7F8E1218559000CFE0FD75F00A66
:100F77008475F010A4FFAEF0ED75F00A84EF7F8C56
:100F870012184F9000D0E0FD75F00A8475F010A498
:100F9700FFAEF0ED75F00A847C00EF7F8812184FE2
:100FA7009000D1E0FD75F00A8475F010A4FFAEF053
:100FB700ED75F00A847C00EF25F0FDEC3EFC7F86A2
:100FC7001218559000D2E0FD75F00A8475F010A450
:100FD700FFAEF0ED75F00A847C00EF25F0FDEC3EE6
:100FE700FC7F841218559000D3E0FD75F00A8475D4
:100FF700F010A4FFAEF0ED75F00A847C00EF25F049
:10100700FDEC3EFC7F821218559000D4E0FD75F090
:101017000A8475F010A4FFAEF0ED75F00A847C0029
:10102700EF25F0FDEC3EFC7F801218559000D5E0CF
:10103700FD75F00A8475F010A4FFAEF0ED75F00AA7
:10104700847C00EF25F0FDEC3EFC7F8A1218557D6D
:08105700807C007F8E02185519
:101470007F8C12196AEFC4540F75F00AA4FEEF5462
:101480000F2E9000CFF07F8812196AEFC4540F75A9
:10149000F00AA4FEEF540F2E9000D0F07F861219B0
:1014A0006AEFC4540F75F00AA4FEEF540F2E90009B
:1014B000D1F07F8412196AEFC4540F75F00AA4FEAC
:1014C000EF540F2E9000D2F07F8212196AEFC454AD
:1014D0000F75F00AA4FEEF540F2E9000D3F07F801A
:1014E00012196AEFC4540F75F00AA4FEEF540F2EC0
:1014F0009000D4F07F8A12196AEFC4540F75F00A75
:0A150000A4FEEF540F2E9000D5F06A
:01150A0022BE
:061E5600C2B18F80D2B280
:081E5C007F027EEFDEFEDFFCD9
:011E6400225B
:0A1E8C00C2B0121E56C2B2021E5C64
:101CD500E0FCA3E0FDCFCDCFCECCCE1204247C001A
:091CE5007D0A120424ED2430FFF5
:0A1CEE00D2B0121E56C2B2021E5CF4
:051D5800EAF0A3EBF02E
:101D5D00AE07EEB40104ED148007EEB40209ED24D4
:081D6D003F4480FF121E8C228E
:101C61007F327E00121D997F38121E8C7F057E0007
:101C7100121D997F0C121D927F06121D927F011277
:091C81001E8C7F057E00021D99F6
:081E9600121D5DAF03021CEEFA
:061BD3007BFF7D017F0194
:0B1BD900900051EBF0A3EAF0A3E9F04C
:101BE400121D5DE4FD900051E0FBA3E0FAA3E0F9CF
:101BF4008D827583001203B1FF6006121CEE0D8006
:011C0400E4FB
:011C050022BC
:0C18B4007F0AEA24FFFDE434FFFC7E0004
:0E18C000900056EEF0A3EFF0A3ECF0A3EDF0D5
:1018CE00A3E4F0A304F0E4FBEBFFD3900059E09FF8
:1018DE007480F8900058E0648098401E90005AE0A2
:1018EE00FEA3E0FF900056E0FCA3E0FD1204129070
:1018FE00005AEEF0A3EFF00B80CE90005AE0FEA35C
:02190E00E0FFF8
:0119100022B4
:031DAE009000534F
:101DB100121D58A3E0FAEAD39400400C1218B49013
:081DC1000053121CD51A80EE3C
:011DC90022F7
:101AA000121D5DC3EA64809480400F7F2B121CEEF0
:101AB0009000E5EAF0A3EBF080127F2D121CEEC33C
:101AC000E49BFEE49A9000E5F0A3CEF09000E4E001
:101AD000FAEAD39400400C1218B49000E5121CD519
:031AE0001A80EE7B
:011AE30022E0
:031AE4009000E986
:101AE700121D58A3E0FAEAD39400402D7F10121874
:101AF700B69000E9E0FCA3E0FDCFCDCFCECCCE126F
:101B07000424EF540FFEC3940AEE500424308002DD
:091B17002437FF121CEE1A80CDE8
:011B200022A2
:031B5E009000EE06
:101B6100121D58A3E0FAEAD39400402CEA24FFFDA9
:101B7100E434FFFC7F027E001218C09000EEE0FC0E
:101B8100A3E0FDCFCDCFCECCCE120424EF5401245F
:081B910030FF121CEE1A80CE99
:011B99002229
:101A0A001214709000D3E0FF7E007C007D3C12052A
:101A1A00CAC004A905AA06AB079000D2E0FF7E005F
:101A2A007C0E7D101205CAD000EF2BFBEE3AFAEDC0
:101A3A0039F9EC38F89000D4E0FFE4FCFDFEEB2F16
:0B1A4A00FFEE3AFEED39FDEC38FC2207
:101DE100E49000D2F0A3F0A3F0120F67121A0A9048
:051DF10000CB02058D8E
:100C2100121C61121EA67A007903121BD37BFF7A74
:100C310000790F7D017F02121BD9121DE12000FDF9
:100C4100121A0A90004312058D9000CBE0F8A3E040
:100C5100F9A3E0FAA3E0FB900043E0FCA3E0FDA3CD
:100C6100E0FEA3E0C39BFFEE9AFEED99FDEC98FC3C
:100C7100A312058D900047E0F8A3E0F9A3E0FAA3E1
:100C8100E0FBC374B09BFF74049AFEE499FDE49801
:100C9100FCA312058DE47B3CFAF9F890004BE0FCD3
:100CA100A3E0FDA3E0FEA3E0FF1204EA90004FEFF2
:100CB100F0E47B3CFAF9F890004BE0FCA3E0FDA3E3
:100CC100E0FEA3E0FF1204EA900050EBF0E4FFFE27
:100CD100FDFC90004BE0F8A3E0F9A3E0FAA3E0FBF0
:100CE100D312057C401AE47FB07E04FDFC900047DE
:100CF100E0F8A3E0F9A3E0FAA3E0FB12057C40369B
:100D0100D20090004B120599000000007A0079157D
:100D1100121BD39000557402F0E4FBFA7D017F02AF
:100D2100121DAE9000557402F0E4FBFA7D047F02BF
:100D3100121DAE020C3E90004FE0FB7A0090005570
:100D41007402F07D01FF121DAE900050E0FB7A00AD
:0C0D51009000557402F07D04FF121DAEEE
:030D5D00020C3E47
:100E6A00E490006DF0ED6026E0FE04F0745D2EF56E
:100E7A0082E43400F583744FF090006DE0FE04F0D4
:100E8A00745D2EF582E43400F583744B803B900048
:100E9A006DE0FE04F0745D2EF582E43400F583748F
:100EAA0045F090006DE0FE04F0745D2EF582E434A6
:100EBA0000F5837452F090006DE0FE04F0745D2E2C
:100ECA00F582E43400F5837452F090006DE0FE047C
:100EDA00F0745D2EF582E43400F583743AF09000E4
:100EEA006DE0FE04F0745D2EF582E43400F583EFC4
:100EFA00F090006DE0FF04F0745D2FF582E4340099
:100F0A00F583740DF090006DE0FF04F0745D2FF529
:100F1A0082E43400F583740AF0E4FF121E0BEF64D6
:100F2A001770397B017A00795D90006DE0FF9000BF
:100F3A009FE4F0A3EFF0E4FF12105F7BFF7A0079E1
:100F4A0027121BA090006DE0245DF582E43400F5C1
:0C0F5A0083E4F07B017A00795D121BA09B
:010F66002268
:0F1E6500E4F5B07BFF7A007940121BA07F0122C9
:0C1E74007BFF7A007959121BA07F01222D
:0C1E80007BFF7A00796E121BA07F01220C
:101911009000F1E590F07BFF7A007983121BA09093
:1019210000F1E0C4540FFFC3940A5006EF2430FFC6
:10193100800A9000F1E0C4540F2437FF121E9E90DC
:1019410000F1E0540FFFC3940A5006EF2430FF80EA
:10195100099000F1E0540F2437FF121E9E7BFF7A9D
:081961000079A3121BA07F0115
:01196900225B
:0513C90090005BEFF055
:1013CE00E4A3F0EF24CF602414603B146052240396
:1013DE0070717BFF7A0079A6121BA07BFF7A0079D1
:1013EE00A6121BA07BFF7A0079A6804C7BFF7A00A9
:1013FE0079CF121BA07BFF7A0079CF121BA07BFF47
:10140E007A0079CF80327BFF7A0079EE121BA07BB7
:10141E00FF7A0079EE121BA07BFF7A0079EE80181E
:10142E007BFF7A01790B121BA07BFF7A01790B12DD
:10143E001BA07BFF7A01790B121BA090005C74013C
:10144E00F0800E121B9A121B9A121B9AE490005CEB
:10145E00F090005BE0FFA3E0FD120E6A90005CE0EE
:01146E00FF7E
:01146F00225A
:10123F00E4900057F0A3F0FF121E0BEF641760034A
:10124F0002130F7B017A00794390005FF0A37414AF
:10125F00F0E4FF120ADD900057EEF0A3EFF0D39405
:10126F0000EE9400500302130F900057E0FEA3E02E
:10127F00FF9414EE9400500E74432FF58274003EC9
:10128F00F583E4F08005E4900056F0E490005AF006
:10129F0090005AE0FFFDD3900058E09D900057E07A
:1012AF009400405374432FF582E43400F583E090AB
:1012BF000059F064306010E0FF6431600AEF64326F
:1012CF006005EF643370287BFF7A017948121BA009
:1012DF00900059E0FF121E9E7BFF7A0079A3121B2C
:1012EF00A0900059E0FF1213C9EF60037F01229015
:1012FF00005AE004F080997BFF7A017968121BA0F5
:02130F007F005D
:0113110022B9
:101CF800E4FDFCC3ED9FEC9E5015E4FBFA0BBB0022
:0F1D0800010ABA03F8BBE8F50DBD00010C80E439
:011D170022A9
:0D1C8A00E0FF121C97A3E0FF121C97AF05AE
:101C9700E4FEEF30E703D38001C392A2EF25E0FF14
:091CA700D2A0C2A00EEEB408E9BF
:011CB0002211
:101DCA00E4FFFEEF25E0FFD2A030A3034401FFC2E7
:061DDA00A00EEEB408EDBE
:011DE00022E0
:06169C003400FEA3E0FD96
:1016A2009000A5EEF0A3EFF0C39408EE940050046E
:1016B2007C048041C3EF9408EE94004013EF940839
:1016C200EE9401500B7C0CEF24F8FFEE34FF801AED
:1016D200C3EF9408EE9401401AEF9408EE9402507E
:1016E200127C2CEF24F8FFEE34FE9000A5F0A3EF5D
:1016F200F080027C04C2A19000A5E0FF121C97A317
:0C170200E0FF121C97AF04121C92D2A151
:01170E0022B8
:08177D00900061FFE03400FE62
:101785009000A5EEF0A3EFF0C39408EE940050048A
:10179500E4FD8041C3EF9408EE94004013EF9408F4
:1017A500EE9401500B7D08EF24F8FFEE34FF801A0C
:1017B500C3EF9408EE9401401AEF9408EE9402509A
:1017C500127D28EF24F8FFEE34FE9000A5F0A3EF7C
:1017D500F08002E4FDC2A19000A5121C8A121DCA68
:0217E500D2A18F
:0117E70022DF
:0319BC00FD7E00AD
:1019BF009000A5EEF0A3EFF09000A8EBF0A3EAF0F3
:0319CF00A3E9F099
:1019D200C2A19000A5121C8AE4FDFCD39000ACE0E9
:1019E2009D9000ABE09C401D9000A8E0FBA3E0FAB4
:1019F200A3E0F98D828C831203B1FF121C970DBDF7
:071A020000010C80D6D2A107
:011A090022BA
:101A5500900067EEF0A3EFF090006AEBF0A3EAF0D8
:031A6500A3E9F002
:101A6800C2A1900067121C8AE4FDFCD390006EE0CE
:101A78009D90006DE09C401D121DCA90006AE0FB1D
:101A8800A3E0FAA3E0F98D828C83EF1203F00DBD79
:071A980000010C80D6D2A171
:011A9F002224
:101E4600C2A57F327E00121CF8D2A57FC8021CF8FC
:10162700121E467B017A0079C79000ABE4F0A374E1
:1016370004F07F011219BC7B017A0079D69000ABC8
:10164700E4F0A37404F07F051219BC7B017A0079DA
:10165700DA9000ABE4F0A37406F07D047F097E0006
:101667001219BF7B017A0079BD9000ABE4F0A37437
:1016770004F0FD7F0F7E001219BF7D077F197E00E2
:101687001216A27DD07F1A7E001216A27D087F1B3C
:051697007E000216A216
:080987007B887A137D01E4FF77
:0A098F00900043EAF0A3EBF0A90585
:10099900EFFEE42408FFE43EFEA3F0A3EFF0E4A396
:1009A900F0A3F0EF2401FFE43EFE7D101216A27FB2
:1009B9000A7E00121CF8900045E0FEA3E0FFAD019D
:1009C9001216A2900046E02404FF900045E034008E
:1009D900FE900043E0FD1216A2900046E02405FFB8
:1009E900900045E090004312169C7BFF7A017990B4
:1009F900121BA0900046E02401FF900045E034005E
:100A0900FE7D011216A27BFF7A0179AF121BA0E4C9
:100A1900900047F0A3F0900046E0240190004512B1
:100A29001780EF6024C3900048E094E8900047E005
:100A3900940350157F017E00121CF8A3E004F070A6
:100A4900D5900047E004F080CDC3900048E094E8D9
:100A5900900047E0940340087BFF7A0179E6806EB5
:100A6900900046E02403FF90004512178190004949
:100A7900EFF0BF130C7BFF7A0179FD121BA07F01F8
:100A8900227BFF7A02791B121BA0900049E0C45413
:100A99000FFFC3940A5006EF2430FF800A900049E3
:100AA900E0C4540F2437FF121E9E900049E0540FF2
:100AB900FFC3940A5006EF2430FF8009900049E0F3
:100AC900540F2437FF121E9E7BFF7A0079A3121B55
:030AD900A07F00FB
:010ADC0022F7
:100D6000EFFEE42408FFE43EFE900043F0A3EFF022
:100D7000E4A3F0A3F0EF2403FFE43EFE12178590F6
:100D80000047EFF0641360097BFF7A02793A020EA4
:100D900064900044E02401FF900043E03400FE7DB5
:100DA000021216A2E4900045F0A3F0900044E02463
:100DB00001FF900043121781EF6024C3900046E0CA
:100DC00094E8900045E0940350157F017E00121CCA
:100DD000F8A3E004F070D4900045E004F080CCC3A8
:100DE000900046E094E8900045E0940340087BFFC3
:100DF0007A027964806E900044E02403FF900043FF
:100E0000121781900047EFF0BF140C7BFF7A027934
:100E10007E121BA07F01227BFF7A02799F121BA00A
:100E2000900047E0C4540FFFC3940A5006EF2430EB
:100E3000FF800A900047E0C4540F2437FF121E9E23
:100E4000900047E0540FFFC3940A5006EF2430FF90
:100E50008009900047E0540F2437FF121E9E7BFF4D
:090E60007A0079A3121BA07F00A7
:010E69002266
:101E0B00EFFEE42408FFE43EFEEF2403FFE43EFE76
:031E1B0012178516
:011E1E0022A1
:10105F0090009CEBF0A3EAF0A3E9F090009BEFF077
:10106F00FEE42408FFE43EFE9000A1F0A3EFF0247D
:10107F0024FFE43EFE121785EF9000A3F0A3E4F0E7
:10108F009000A2E02425FF9000A11217819000A3E9
:10109F00E0FEA3E04FFF9000A3EEF0A3EFF0FDAC56
:1010AF000690009BE0FBC454F0FEE42400FFEE34F6
:1010BF0080FEEC540FFCEF2DFFEE3CFEC007EBC49F
:1010CF003354E04414FDA3E0FBA3E0FAA3E0F9A33B
:1010DF00E0FFA3E09000ABCFF0A3EFF0D007121921
:1010EF00BF90009FE0FEA3E0FF9000A4E02FF090E0
:1010FF0000A3E03EF09000A2E02424FF9000A1E0C6
:10110F003400FE9000A3E0FD1216A29000A2E0248E
:10111F0025FF9000A1E09000A312169C9000A2E082
:10112F002401FF9000A1E03400FE7D201216A29052
:0F113F0000A2E02401FF9000A1121781EF70F0D1
:01114E00227E
:100ADD0090005CEBF0A3EAF0A3E9F090005BEFF07F
:100AED00FEE42408FFE43EFE900061F0A3EFF02445
:100AFD0026FFE43EFE121785EF900063F0A3E4F0AD
:100B0D00900062E0242712177D900063E0FEA3E0C1
:100B1D004FFF900063EEF0FEA3EFF04E7003FEFF6B
:100B2D002290005FE0FEA3E0FFD3900064E09F9071
:100B3D000063E09E4005EEF0A3EFF0900062E0242C
:100B4D002812177DEF900065F0A3E4F0900062E0AD
:100B5D00242912177D900065E0FEA3E04FFF900061
:100B6D0065EEF0A3EFF0FDAC0690005BE0FBC45426
:100B7D00F0FEE42400FFEE34C0FEEC540FFCEF2D2C
:100B8D00FFEE3CFEC007EBC43354E04418FDA3E078
:100B9D00FBA3E0FAA3E0F9900063E0FFA3E090006F
:100BAD006DCFF0A3EFF0D007121A55900063E0FE61
:100BBD00A3E0FF900066E02FF0900065E03EF0901E
:100BCD000062E02428FF900061E03400FE90006593
:100BDD00E0FD1216A2900062E02429FF900061E072
:100BED003400FE900065A3E0FD1216A2900062E0B5
:100BFD002401FF900061E03400FE7D401216A290AA
:100C0D000062E0240112177DEF70F4900063E0FEA6
:030C1D00A3E0FF52
:010C200022B1
:081E9E008F993099FDC29922D1
:061B9A007BFF7A017929AE
:101BA00090009BEBF0A3EAF0A3E9F090009BE0FB30
:101BB000A3E0FAA3E0F9120398601790009BA3E456
:101BC00075F001120479A9F0FA120398FF121E9E13
:031BD00080D92297
:101D1800E4FDFCC3ED9FEC9E5015E4FBFA0BBB0001
:0F1D2800010AEB646F4A70F50DBD00010C80E4F9
:011D37002289
:081CB100AB07C2907F0A7E0020
:101CB900E4FDFCC3ED9FEC9E501100000000000004
:0B1CC900000000000DBD00010C80E8D1
:011CD40022ED
:021C0600AB072A
:101C0800C291121CB5E4FAEB30E703D38001C3920A
:101C180092121CB5D2917F14121CB9EB25E0FBC2BD
:0B1C2800917F0A121CB90AEAB408DC24
:011C3300228E
:101C3400E4FBC2917F0AFE121CB9E4FAEB25E0FB37
:101C4400D2917F147E00121CB9309304EB4401FB43
:0C1C5400C291121CB50AEAB408E2AF030A
:011C60002261
:101D7500A905121CB1AF03EF25E0547EFF121C0626
:0D1D8500AF01121C06121CB5D290021CB951
:101D3800121CB1AF03EF25E0547E4480FF121C064D
:0F1D4800121C34AB07121CB5D290121CB9AF039A
:011D57002269
:071E1F009000BCEDF0A907E3
:0D1E2600121D38AE07AF01E04EFD021D7524
:071DF6009000BCEDF0A9070D
:0E1DFD00121D38AE07AF01E0F45EFD021D7549
:1017E800C2947F647E00121D18D2947FF40E121DDD
:1017F800187D0F7F01121D757F647E00121D187FF2
:1018080001121D38EF20E4F77D837F14121D757DCA
:101818007F7F26121D757D267F24121D757D407FD2
:1018280015121D757D3D7F11121D757D807F2A1251
:101838001D757DA97F2B121D757D037F2C121D75CB
:071848007DFF7F2D021D75DD
:1005F7009000ABEBF0A3EAF0A3E9F09000AAEFF0CC
:10060700E49000B5F0A3F0A3F09000BAF0A3F0EFE8
:1006170024F4700A9000B67477F0A37430F0900059
:10062700B6E04480FD7F02121D757D807F04121D98
:10063700F67D807F0A121E1FE4FD7F01121D75E4FF
:100647009000B9F09000AEE0FF9000B9E0FEC39FC4
:1006570050219000ABE0FBA3E0FAA3E0F98E82758E
:1006670083001203B1FD7F09121D759000B9E004E4
:10067700F080D19000AAE0FD7F01121D75E0B40C57
:10068700077D807F0D121E1F7F04121D389000B852
:10069700EFF09000BBE004F070069000BAE004F0C1
:1006A700D39000BBE094889000BAE0941340089080
:1006B70000B57402F080187F327E00121CB99000DA
:1006C700B8E0FF20E0099000B7E0FEEF5E60B97D7B
:1006D700807F0D121DF6C39000BBE094D09000BA46
:1006E700E0940740030207C17F06121D38EF541B31
:1006F70060030207BB9000B5F0A3E0FF9000B8E0ED
:100707005F30E0069000B57401F09000AAE0640C39
:1007170060030207C17F0A121D389000B8EFF07F0F
:100727000C121D38EF5407FD6026E024FFFFE43468
:10073700FFFEEF7803C333CE33CED8F97C002DFF0D
:10074700EC3EF99000B2E0FBA3E0FAA3E0C9801603
:100757009000B8E075F008A4FF9000B2E0FBA3E0BA
:10076700FAA3E0F9E5F08FF012048F9000B8E0707B
:100777000204F09000B8E0D3941040037410F0E442
:100787009000B9F09000B8E0FFA3E0C39F502B7F23
:1007970009121D389000AFE0FBA3E0FAA3E0F9903F
:1007A70000B9E0F582758300EF1203F09000B9E01D
:0F07B70004F080D09000B57403F09000B5E0FF1F
:0107C6002210
:0E170F0090009BEFF0A3EBF0A3EAF0A3E9F04B
:10171D007D077F0D121D7590009BE0FFA3E0FBA3DD
:10172D00E0FAA3E0F9EF1203DE9000AE7401F09041
:10173D00009CE0F9A3E0FAA3E09000AFC9F0A3EAA2
:10174D00F0A3E9F0A37401F0A37400F0A3749FF06B
:10175D0090009CE0FBA3A3E0F97F0C1205F7EF705E
:0F176D000C90009FE07004A3E0641060027F0105
:01177C00224A
:0B13120090009BEBF0A3EAF0A3E9F0D1
:10131D00E4A3F0FD7F0D121D7590009BE0FBA3E093
:10132D00FAA3E0F974931203DE90009BE0FBA3E0B7
:10133D00FAA3E0F990000174201203F0C002C0017D
:10134D009000AE7402F090009BE0F9A3E0FAA3E0E8
:10135D009000AFC9F0A3EAF0A3E9F0A37401F0A3E4
:10136D007400F0A3749FF0D001D0027F0C1205F72A
:10137D00AC07EC7044FD90009EE0FF90009BE0FBFD
:10138D00A3E0FAA3E0F98D827583001203B1FEEF9D
:10139D006E90009EF00DEDB404DC90009BE0FBA37D
:1013AD00E0FAA3E0F9AF058F827583001203B1FF58
:0B13BD0090009EE06F60027C01AF0416
:0113C8002202
:0B150B0090009BEBF0A3EAF0A3E9F0D6
:101516009000A17493F0A37470F0E490009EF09094
:10152600009BE0FBA3E0FAA3E0F9A3E0FFF58275D8
:1015360083001203B1FE74A32FF582E43400F58311
:10154600EEF090009EE004F0E0B405D39000AE7497
:1015560007F0A37401F0A37400F0A374A1F0A374C0
:1015660001F0A37400F0A3749FF07B017A0079A1C7
:101576007F0C1205F7EF701290009FE07004A3E055
:10158600641870069000A1E08001E490009EF0903F
:04159600009EE0FFD4
:01159A00222E
:101E33007F06121D38EF541B60061217E87F00223D
:021E43007F011D
:011E4500227A
:1007C700E4900099F0121E33EF70097F64FE121D4A
:1007D700187F0022E4900058F07B017A0079437F6C
:1007E7005212170FA907E9600280217B017A00796D
:1007F70053121312A907E9600280117B017A00796D
:100807005312150BA907EFD3940040137F0A7E00FC
:10081700121D18900058E004F0E0C3940340BA900A
:100827000058E0C3940340037F0022900099E0FF43
:1008370004F074592FF582E43400F5837455F09071
:100847000099E0FF04F074592FF582E43400F58332
:100857007449F0900099E0FF04F074592FF582E491
:100867003400F5837444F0900099E0FF04F0745964
:100877002FF582E43400F583743AF0900099E0FF95
:1008870004F074592FF582E43400F5837420F0E402
:01089700FF61
:1008980074532FF582E43400F583E0C4540F9000BC
:1008A8009AF0C3940A5006E02430FE800790009A1C
:1008B800E02437FE900099E0FD04F074592DF5828C
:1008C800E43400F583EEF074532FF582E43400F538
:1008D80083E0540F90009AF0C3940A5006E0243045
:1008E800FE800790009AE02437FE900099E0FD040E
:1008F800F074592DF582E43400F583EEF0EFC394DB
:10090800035014900099E0FE04F074592EF582E427
:070918003400F5837420F0A8
:10091F000FEF64046003020898900099E0FF04F061
:10092F0074592FF582E43400F583740DF09000991B
:10093F00E0FF04F074592FF582E43400F583740A54
:10094F00F0900099E0FE2459F582E43400F583E439
:10095F00F07B017A00795990009FF0A3CEF0E4FF6D
:10096F0012105F7BFF7A0279B9121BA07B017A000C
:07097F007959121BA07F0152
:01098600224E
:10114F00E4900040F0A3F075985053890F43892025
:10115F00758DFD758BFD53877FD28ED299C298D234
:10116F009C1216277FE87E03121CF81217E87FF4F3
:10117F007E01121CF8120987E4FF120D607BFF7AC3
:0F118F000279D3121BA07BFF7A0279E7121BA013
:10119E00E4FF121E0B900042EFF06417703D121226
:1011AE003F120C21900041E004F07006900040E0E8
:1011BE0004F0900040E0FEA3E0FF7C007D051204E9
:1011CE0024ED4C70621207C7EF605CE4900040F0B3
:1011DE00A3F07FDC7E05121CF8804C900042E0B438
:1011EE001C117D087F097E001216A27BFF7A0379FF
:1011FE000A8031900042E0702E7BFF7A0379201234
:10120E001BA0120987EF6016E4FF120D60EF7BFF43
:10121E0060067A03793F800C7A03795F80067BFF44
:0E122E007A03797D121BA07F327E00121CF81D
:03123C0002119EFE
:031EAB0002114FD2
:1015A700021EABE493A3F8E493A34003F68001F291
:1015B70008DFF48029E493A3F85407240CC8C33345
:1015C700C4540F4420C8834004F456800146F6DF14
:1015D700E4800B0102040810204080901B21E47E68
:1015E700019360BCA3FF543F30E509541FFEE49309
:1015F700A360010ECF54C025E060A840B8E493A3D0
:10160700FAE493A3F8E493A3C8C582C8CAC583CAFA
:10161700F0A3C8C582C8CAC583CADFE9DEE780BEB2
:011B5D000087
:10039800BB010689828A83E0225002E722BBFE0263
:0903A800E32289828A83E4932296
:1003B100BB010CE58229F582E5833AF583E0225001
:1003C10006E92582F8E622BBFE06E92582F8E2224B
:0D03D100E58229F582E5833AF583E4932265
:1003DE00BB010689828A83F0225002F722BBFE01FE
:0203EE00F322F8
:1003F000F8BB010DE58229F582E5833AF583E8F043
:10040000225006E92582C8F622BBFE05E92582C8EE
:02041000F222D6
:10041200EF8DF0A4A8F0CF8CF0A428CE8DF0A42EFE
:02042200FE22B8
:10042400BC000BBE0029EF8DF084FFADF022E4CCBC
:10043400F875F008EF2FFFEE33FEEC33FCEE9DEC85
:10044400984005FCEE9DFE0FD5F0E9E4CEFD22EDCB
:10045400F8F5F0EE8420D21CFEADF075F008EF2F15
:10046400FFED33FD4007985006D5F0F222C398FD06
:050474000FD5F0EA22A3
:10047900A3F8E0C5F025F0F0E58215827002158336
:06048900E0C838F0E82293
:10048F00BB010A89828A83F0E5F0A3F0225006F7B8
:0F049F0009A7F01922BBFE06F3E5F009F31922B5
:1004AE0075F008758200EF2FFFEE33FECD33CDCC05
:1004BE0033CCC58233C5829BED9AEC99E582984088
:1004CE000CF582EE9BFEED9AFDEC99FC0FD5F0D665
:1004DE00E4CEFBE4CDFAE4CCF9A88222B800C1B98F
:1004EE000059BA002DEC8BF084CFCECDFCE5F0CBCD
:1004FE00F97818EF2FFFEE33FEED33FDEC33FCEB06
:10050E0033FB10D703994004EB99FB0FD8E5E4F9C0
:10051E00FA227818EF2FFFEE33FEED33FDEC33FCAD
:10052E00C933C910D7059BE99A4007EC9BFCE99AA1
:10053E00F90FD8E0E4C9FAE4CCFB2275F010EF2FE6
:10054E00FFEE33FEED33FDCC33CCC833C810D707E6
:10055E009BEC9AE899400AED9BFDEC9AFCE899F821
:0E056E000FD5F0DAE4CDFBE4CCFAE4C8F922B4
:10057C00EB9FF5F0EA9E42F0E99D42F0E89C45F0D5
:01058C00224C
:0C058D00ECF0A3EDF0A3EEF0A3EFF022E1
:10059900A8828583F0D083D0821205B01205B012EB
:1005A90005B01205B0E473E493A3C583C5F0C58310
:1005B900C8C582C8F0A3C583C5F0C583C8C582C8AC
:0105C900220F
:1005CA00EC8EF0A4CCC5F0CCCDF8EFA4CEC5F02DBE
:1005DA00FDE43CFCE8A42EC8C5F03DFDE43CFCEF7C
:0D05EA00A4FFE5F028FEE43DFDE43CFC220A
:00000001FF
